:100000000C94DB020C9403030C9403030C94030381
:100010000C9403030C9403030C9403030C94030348
:100020000C9403030C9403030C9403030C94030338
:100030000C9403030C946F190C9403030C940303A6
:100040000C9416180C9403030C949B180C947518BC
:100050000C9403030C9403030C9403030C94030308
:100060000C9403030C940303D9097308A708EC0844
:1000700019093F0996099A1321144514511455146E
:100080005E1466146A1473147F148F1497138920F6
:100090009A20BB20E32000210D220D22111A111AF3
:1000A000111ACF1ACF1A391A4E1A651A721A801AF3
:1000B000921ACF1ACF1ACF1AB71A000000002400E4
:1000C00027002A000000000023002600290000006D
:1000D0000008000201000003040700000000000007
:1000E00000000102040810204080010204081020D2
:1000F00001020408102000000000250028002B0049
:1001000004040404040404040202020202020303BD
:10011000030303035F0003020304030504050A004D
:10012000FE07FE0700014202882005006207210742
:100130003943C7A00422079B52476209230E3D4260
:100140004F294906A53228A52401240C3D4257B663
:10015000D4B624D92200250C3D424FA474ABB44838
:100160000900260D3D424F9644495649A4480927A7
:10017000061953C7002808BB425752AA152909BBC4
:10018000424756AA94002A0A2D4647965406A52DA2
:100190002B0A2D4657180D5218012C079B3E8F52E3
:1001A000022D060D4EC7202E089B3E4FB224002F75
:1001B000083D4267AD6308300B3D425796D46C4909
:1001C0002D02310A3D4257262561D320320C3D4293
:1001D000CF92859194858300330C3D42C720669968
:1001E000AA250B00340C3D425F2625A564D0C2042D
:1001F000350B3D42C73131855AB200360C3D42972E
:10020000948589494B1600370B3D42C720666156DD
:10021000CC00380C3D42CF9269C99269C902390CB1
:100220003D42CF92498A126691043A0ABB3E4FB2D0
:10023000A4C992003B09BB3E4FB2A44A093C08BC8A
:10024000425FD4D8003D081D4AC7A00E023E08BC3C
:100250004247D8D4063F0A3D42CF9235E65004408B
:100260000C3D42CF92494B62491700410C3D425729
:1002700096D4B461C8B400420D3D42C71055A26483
:10028000AA448302430A3D42CF92896DC902440FBA
:100290003D42C71055A2244AA2241A1400450B3D22
:1002A00042C7311C92301C04460A3D42C7311C92A1
:1002B000B008470B3D42CF9289A52D5900480A3D11
:1002C0004247661B86CC164908BB42C71275194ABD
:1002D0000A3D42D716B64491044B0D3D42472625B0
:1002E000252D892A59004C083D4247D8E3204D0B63
:1002F0003D4247A62D4BA2D9024E0C3D4247A64D8A
:100300004A226D5A004F0A3D42CF92794B16005057
:100310000C3D42C79064DAA0844500510A453ECFA7
:100320009279A9AC01520D3D42C79064DAA0942A9B
:100330005900530B3D42CF92A9AB962C0054093D76
:1003400042C720853D0155093D4247E65BB2005654
:100350000D3D4247664B4A4994641100570A3D429D
:1003600047E69228C92D580B3D4247A625B54A4D70
:100370000B590A3D4247A625B5B0095A0A3D42C766
:1003800020661D07015B08BB42C710751A5C083D5B
:10039000424798760C5D08BB42C7D469085E081DC9
:1003A000525796D4025F060D3EC7206006125B4787
:1003B00014610A2D42CF9A0C5A3204620B3D424717
:1003C00058316993A200630A2D42CF928959B20035
:1003D000640A3D4267C5B4498A12650A2D42CF922C
:1003E0000D43BA00660B3D429754C98628AC01679D
:1003F0000C3D3ACFA069C9106AC902680A3D42475C
:10040000583169B6006908BB424F28B50C6A0BCC5D
:100410003A5FACD5242951006B0B3D42475893926B
:10042000A992056C08BB4287D4CB006D0B2D428787
:10043000D2A2244AA2056E092D424762D26C016FF6
:10044000092D42CF92D99205700C3D3A4762D226CF
:1004500045094300710A3D3A8F699314252C7209AE
:100460002D424762128B0073092D42CF921E140059
:10047000740C3D424F980D51588A140075092D4255
:1004800047E6A42801760B2D4247A625A5248B001C
:10049000770A2D42476649942E00780A2D424796E6
:1004A000D42AB500790C3D3A47665294504B160059
:1004B0007A092D42C7A0B50D027B0ABC42971226CD
:1004C00062140A7C063943C7217D0BBC428718851C
:1004D0004A9848007E091D524FA42452020000F49D
:1004E000113600102AA00000A0FF0062007F102B30
:1004F000B00000B0FF0062009F102C7000F41010DC
:100500001028F500F4113680113680102AA0000062
:10051000A0FF00A00000A0FF00102BB00000B0FF63
:100520000062009F102C7000F4113640113640100C
:100530002AA00000A0FF0062007F102BB80100B0CD
:10054000FF0062009F102C7000F4113600102AA0EA
:100550000000A0FF00A00000A0FF00102BB00000D2
:10056000B0FF0062009F102C7000F4113600102ABA
:10057000A00000A0FF0062007F102BB00000B0FFC1
:100580000062009F102C7000FDF1F58005F08005E1
:10059000F18032F41011800A10131020113A061065
:1005A00029113600142A0000007F142B0000009F40
:1005B000102CF5001A1E11241FBECFEFD8E0DEBFAD
:1005C000CDBF11E0A0E0B1E0E0E1FCE402C00590A5
:1005D0000D92AA3EB107D9F723E0AAEEB1E001C01F
:1005E0001D92A138B207E1F712E0CBEDD2E004C0D2
:1005F0002197FE010E949E22CA3DD107C9F70E94A1
:10060000AD1E0C9406260C940000089580E090E046
:100610000895CF92DF92EF92FF920F931F93CF93A3
:10062000DF93C0916903D0916A03888187FD4DC033
:10063000998197FD4AC09B85992361F029853A8568
:10064000225031093A87298729853A8537FF02C028
:100650001A8619860E940B112B8130E082179307AE
:1006600011F413E001C010E089810E940B112B816D
:1006700030E08217930711F481E018278E819F8163
:10068000811B80FF12C0212F110F330B3F832E835C
:100690002C813D818270082E000C990B0197820FEE
:1006A000931F9D838C8381E001C080E09B8599230B
:1006B00061F0882351F089859A85883E9B4028F413
:1006C00089859A8549969A8789870E940A180A8D92
:1006D0001B8D2C8D3D8D601771078207930720F4C9
:1006E0001A8E1B8E1C8E1D8E4A81141634F04111F9
:1006F000A1C02889222309F49DC00A8D1B8D2C8D51
:100700003D8D6B017C01C01AD10AE20AF30A970100
:1007100086010A3011052105310508F48BC06A8F66
:100720007B8F8C8F9D8F9989842F992311F14E3067
:1007300008F08E508770806480937C0080917A00EE
:10074000806480937A0080917A0086FDFCCF80914E
:1007500078002091790090E0922B2E8D3F8D8217AA
:10076000930774F021E048A159A1481759074CF0AC
:1007700005C00E940B1121E0892B19F420E001C073
:1007800021E03B81321315C0EA89FB893196FB8B4E
:10079000EA8B8E899F896AE070E00E9476226E174C
:1007A0007F0738F48F85882321F083E090E09D87D0
:1007B0008C8781E08327821330C08A899B890297C6
:1007C00050F18C859D85039719F484E090E010C06A
:1007D0002C893D892230310580F0888D998D6AE021
:1007E00070E00E94762226173707A8F486E090E092
:1007F0009D878C871D8A1C8A0EC08E85882339F0C0
:10080000888D998D6AE070E00E94762202C061E0D6
:1008100070E07D8B6C8B1B8A1A8A8C899D8900976E
:1008200049F001979D8B8C8B892B21F485E090E01A
:100830009D878C87DF91CF911F910F91FF90EF9053
:10084000DF90CF900895EF92FF920F931F93CF9375
:10085000DF930E945610C7E8D2E01FEF1AA71BA72C
:100860001CA721E030E048E050E06DE270E08AE350
:1008700090E00E94E10B21E030E044E050E06EE2C5
:1008800070E086E390E00E94E10B21E030E044E07C
:1008900050E06EE270E082E490E00E94E10B21E023
:1008A00030E042E050E06FE270E084E390E00E94CC
:1008B000E10B21E030E042E050E06FE270E086E4DE
:1008C00090E00E94E10B21E030E041E050E060E385
:1008D00070E083E390E00E94E10B21E030E041E032
:1008E00050E060E370E088E490E00E94E10B23E0D8
:1008F00030E041E050E061E370E082E390E00E948C
:10090000E10B23E030E041E050E061E370E089E496
:1009100090E00E94E10B21E030E041E050E064E330
:1009200070E083E390E00E94E10B21E030E041E0E1
:1009300050E064E370E088E490E00E94E10B21E085
:1009400030E042E050E065E370E084E390E00E9434
:10095000E10B21E030E042E050E065E370E086E446
:1009600090E00E94E10B21E030E044E050E066E3DB
:1009700070E086E390E00E94E10B21E030E044E08B
:1009800050E066E370E082E490E00E94E10B21E039
:1009900030E048E050E067E370E08AE390E00E94D6
:1009A000E10B8BE88AA785E48BA783E18CA721E084
:1009B00030E048E050E060E370E08AE390E00E94BD
:1009C000E10B21E030E040E150E061E370E086E3DC
:1009D00090E00E94E10B21E030E044E150E062E36E
:1009E00070E084E390E00E94E10B21E030E046E11A
:1009F00050E063E370E083E390E00E94E10B21E0CC
:100A000030E044E150E064E370E084E390E00E9471
:100A1000E10B21E030E040E150E065E370E086E387
:100A200090E00E94E10B21E030E048E050E066E316
:100A300070E08AE390E00E94E10B8DEC8AA785E8E4
:100A40008BA78FE38CA762E370E08AE390E00E94BB
:100A50001D0C62E370E089E390E00E941D0C63E3EB
:100A600070E088E390E00E941D0C64E370E089E38D
:100A700090E00E941D0C64E370E08AE390E00E9425
:100A80001D0C64E370E08BE390E00E941D0C64E3B6
:100A900070E08CE390E00E941D0C65E370E08DE354
:100AA00090E00E941D0C65E370E08EE390E00E94F0
:100AB0001D0C65E370E08FE390E00E941D0C64E381
:100AC00070E080E490E00E941D0C64E370E081E43B
:100AD00090E00E941D0C64E370E082E490E00E94CC
:100AE0001D0C63E370E083E490E00E941D0C62E360
:100AF00070E082E490E00E941D0C61E370E080E40D
:100B000090E00E941D0C61E370E08FE390E00E9492
:100B10001D0C61E370E08EE390E00E941D0C1AA7AB
:100B20001BA71CA725E030E041E050E064E370E043
:100B300082E390E00E94E10B25E030E041E050E0EC
:100B400064E370E089E490E00E94E10B25E030E08E
:100B500041E050E065E370E083E390E00E94E10B48
:100B600025E030E041E050E065E370E088E490E0AB
:100B70000E94E10B25E030E042E050E066E370E0E7
:100B800084E390E00E94E10B25E030E042E050E099
:100B900066E370E086E490E00E94E10B25E030E03F
:100BA00044E050E067E370E086E390E00E94E10BF0
:100BB00025E030E044E050E067E370E082E490E05C
:100BC0000E94E10B25E030E048E050E068E370E08F
:100BD0008AE390E00E94E10B81E5E82EEAA69DE819
:100BE000F92EFBA601EC0CA725E030E041E050E037
:100BF00069E370E082E390E00E94E10B25E030E0E1
:100C000041E050E069E370E089E490E00E94E10B8C
:100C100025E030E041E050E06AE370E083E390E0FB
:100C20000E94E10B25E030E041E050E06AE370E033
:100C300088E490E00E94E10B25E030E042E050E0E3
:100C40006BE370E084E390E00E94E10B25E030E08C
:100C500042E050E06BE370E086E490E00E94E10B3C
:100C600025E030E044E050E06CE370E086E390E0A3
:100C70000E94E10B25E030E044E050E06CE370E0DE
:100C800082E490E00E94E10B25E030E048E050E093
:100C90006DE370E08AE390E00E94E10B1AA71BA7C6
:100CA0001CA725E030E041E050E06EE370E082E315
:100CB00090E00E94E10B25E030E041E050E06EE37F
:100CC00070E089E490E00E94E10B25E030E041E033
:100CD00050E06FE370E083E390E00E94E10B25E0D9
:100CE00030E041E050E06FE370E088E490E00E9483
:100CF000E10B25E030E042E050E060E470E084E3A6
:100D000090E00E94E10B25E030E042E050E060E43A
:100D100070E086E490E00E94E10B25E030E044E0E2
:100D200050E061E470E086E390E00E94E10B25E092
:100D300030E044E050E061E470E082E490E00E9442
:100D4000E10B25E030E048E050E062E470E08AE347
:100D500090E00E94E10BEAA6FBA60CA725E030E09C
:100D600041E050E063E470E082E390E00E94E10B38
:100D700025E030E041E050E063E470E089E490E099
:100D80000E94E10B25E030E041E050E064E470E0D7
:100D900083E390E00E94E10B25E030E041E050E089
:100DA00064E470E088E490E00E94E10B25E030E02C
:100DB00042E050E065E470E084E390E00E94E10BE3
:100DC00025E030E042E050E065E470E086E490E049
:100DD0000E94E10B25E030E044E050E066E470E082
:100DE00086E390E00E94E10B25E030E044E050E033
:100DF00066E470E082E490E00E94E10B25E030E0E0
:100E000048E050E067E470E08AE390E00E94E10B84
:100E10001AA71BA71CA725E030E041E050E068E4DA
:100E200070E082E390E00E94E10B25E030E041E0D9
:100E300050E068E470E089E490E00E94E10B25E076
:100E400030E041E050E069E470E083E390E00E942C
:100E5000E10B25E030E041E050E069E470E088E437
:100E600090E00E94E10B25E030E042E050E06AE4CF
:100E700070E084E390E00E94E10B25E030E042E086
:100E800050E06AE470E086E490E00E94E10B25E027
:100E900030E044E050E06BE470E086E390E00E94D4
:100EA000E10B25E030E044E050E06BE470E082E4E8
:100EB00090E00E94E10B25E030E048E050E06CE477
:100EC00070E08AE390E00E94E10B1AA71BA71CA721
:100ED00023E030E041E050E066E370E08AE490E037
:100EE0000E94E10B23E030E041E050E064E470E078
:100EF0008AE490E00E94E10B23E030E043E050E020
:100F000065E370E08BE490E00E94E10B23E030E0C9
:100F100043E050E065E470E08BE490E00E94E10B78
:100F200023E030E041E050E066E370E08EE490E0E2
:100F30000E94E10B23E030E041E050E064E470E027
:100F40008EE490E00E94E10B2FE030E041E050E0C1
:100F500067E370E08FE490E00E94E10B2DE030E069
:100F600041E050E068E370E080E590E00E94E10B32
:100F70008AE58AA78BA78CA722E030E042E050E008
:100F800069E170E089E390E00E94E10B22E030E04B
:100F900042E050E06BE170E08BE390E00E94E10BF7
:100FA00024E030E041E050E06DE170E08AE390E061
:100FB0000E94E10B24E030E042E050E061E270E0AA
:100FC0008BE390E00E94E10B22E030E041E050E052
:100FD00065E270E08AE390E00E94E10B80E58AA779
:100FE0008BA78CA722E030E042E050E069E170E09E
:100FF00081E490E00E94E10B24E030E042E050E028
:101000006BE170E08FE390E00E94E10B22E030E0C2
:1010100042E050E06FE170E081E490E00E94E10B7B
:1010200022E030E042E050E061E270E08FE390E0E7
:101030000E94E10B22E030E041E050E063E270E02A
:1010400080E490E00E94E10B22E030E042E050E0DA
:1010500065E270E08FE390E00E94E10B0E94AC0F2C
:101060001AA71BA71CA728E5E22E23E0F22E86E193
:1010700090E0F701918380830AE513E08EE690E02B
:10108000F8019183808389E291E00E94DC0B86E481
:101090008AA78BA78CA782E390E0F70191838083D6
:1010A00086E990E0F8019183808388E391E0DF9105
:1010B000CF911F910F91FF90EF900C94DC0BE0917A
:1010C0006703809100018E1709F475C1E093000158
:1010D0008E2F90E08730910508F06BC1FC01EC5C2D
:1010E000FF4F0C949E220E94561082E30E94900CA7
:1010F0000E94AC0F8FEF8093B1028093B202809375
:10110000B3028EE190E090935903809358038EE6EA
:1011100090E090935B0380935A038EE391E00E94EA
:10112000DC0B86E48093B1028093B2028093B30219
:101130008BE190E0909359038093580386E990E007
:1011400090935B0380935A038BE491E043C00E9429
:10115000561083E20E94900C0E94AC0F8FEF809398
:10116000B1028093B2028093B3028BE490E090933B
:1011700059038093580381E490E090935B0380933C
:101180005A0389E591E00E94DC0B81E290E09093A4
:101190005903809358038EE690E090935B0380930D
:1011A0005A038DE591E00E94DC0B86E48093B10246
:1011B0008093B2028093B30289E190E09093590347
:1011C0008093580386E990E090935B0380935A03E1
:1011D00089E691E00C94DC0B0E94561083E20E9499
:1011E000900C0E94AC0F8FEF8093B1028093B202FB
:1011F0008093B3028BE490E090935903809358035B
:1012000081E490E090935B0380935A0388E791E038
:101210000E94DC0B81E290E0909359038093580385
:101220008EE690E090935B0380935A038CE791E005
:10123000BACF1092B1021092B2021092B30220E51E
:1012400030E040E850E060E570E080E090E00E942F
:10125000E10B8FEF8093B1028093B2028093B302CF
:1012600088E290E090935903809358038EE690E0D3
:1012700090935B0380935A0388E891E0ABCF0E9480
:1012800056101092B1028EED8093B2021092B3020A
:1012900042E150E069E370E080E490E00E945C0F7E
:1012A00041E150E069E370E080E490E00E945C0F6F
:1012B0002FE330E040E450E069E370E08BE390E03E
:1012C0000E94960E25E330E046E450E06FE370E0C4
:1012D00080E490E00E94960E20E430E040E450E08C
:1012E00069E370E08AE390E00E94960E25E330E027
:1012F00047E450E060E470E080E490E00E94960EE5
:101300008FEF8093B1028093B2028093B30287E1A2
:1013100090E090935903809358038EE690E0909369
:101320005B0380935A0381E991E054CF0E945610E9
:101330008EED8093B1021092B2021092B30242E19C
:1013400050E069E370E080E490E00E945C0F41E1CE
:1013500050E069E370E080E490E00E945C0F2FE3CE
:1013600030E046E450E063E370E08AE390E00E94FE
:10137000960E23E330E046E450E06FE370E08AE34A
:1013800090E00E94960E8FEF8093B1028093B2029C
:101390008093B3028CE090E09093590380935803BC
:1013A0008EE690E090935B0380935A0380EA91E08D
:1013B00011CF0C94230408952F923F924F925F9285
:1013C0006F927F928F929F92AF92BF92CF92DF9255
:1013D000EF92FF920F931F93CF93DF93CDB7DEB7BA
:1013E000A1970FB6F894DEBF0FBECDBF8C0110924F
:1013F000B1021092B2021092B30224E130E040E850
:1014000050E068E770E080E090E00E94E10BB801F6
:1014100080E090E00E94B72320E030E04AE754E407
:101420000E9416236B017C0130918C0220918D0269
:101430000031174240F4832F922F97FD0196959526
:101440008795895007C0832F922F97FD0196959518
:1014500087958C509FEF9093B1029093B202909336
:10146000B3021092B4021092B5021092B60290E04C
:10147000909359038093580382E890E090935B0324
:1014800080935A03A7019601C701B6010E94DB248D
:10149000882319F063EB71E0A4C046015701E8947A
:1014A000B7F82FEF3FEF4FE75FE7C501B4010E94A8
:1014B000DB2481110DC02FEF3FEF4FE75FE7C50140
:1014C000B4010E94112318161CF467EB71E089C067
:1014D0002FEF3FEF4FE75FE4C701B6010E94692499
:1014E00018161CF46BEB71E07CC02FEF3FEF4FE759
:1014F0005FECC701B6010E94112387FDF3CF20E006
:1015000030E0A901C701B6010E94112387FF09C07D
:101510006DE287E892E00E94FD11F7FAF094F7F887
:10152000F0942DEC3CEC4CE45DE3C701B6010E9465
:10153000A5224B015C010E9488238B016C0119A23A
:101540009B01AC017E01E1E2EE0EF11C37019AE055
:10155000292E312C412C512CCA01B901A201910133
:101560000E945422605DF70162937F0121153105CD
:101570004105510589F7BF0187E892E00E94601894
:101580006EE287E892E00E94FD11B801C6010E9458
:10159000B7239B01AC01C501B4010E94A42220E045
:1015A00030E040E251E40E946E240E9488239B01B7
:1015B00040E050E019A283018AE0C82ED12CE12C32
:1015C000F12CCA01B901A70196010E945422605D65
:1015D000F80162938F01211531054105510589F705
:1015E000BF0187E892E00E94601886E48093B10210
:1015F0008093B2028093B3028AE190E09093590302
:101600008093580386E990E090935B0380935A039C
:101610008FEB91E00E94DC0BA1960FB6F894DEBF31
:101620000FBECDBFDF91CF911F910F91FF90EF9033
:10163000DF90CF90BF90AF909F908F907F906F90F2
:101640005F904F903F902F900895E82FF0E0EC5E70
:10165000FE4F849190E0982F88273196E4918E0F69
:10166000911D0895833081F028F4813099F0823003
:10167000A1F008958730A9F08830B9F08430D1F412
:10168000809180008F7D03C0809180008F77809350
:101690008000089584B58F7702C084B58F7D84BDA6
:1016A00008958091B0008F7703C08091B0008F7D46
:1016B0008093B0000895E0919002F09191024CE87F
:1016C00052E06FE070E08BE892E009958BE892E0E1
:1016D0000C94EE1D80918B0280FF10C0E09190026F
:1016E000F091910240E050E06BE070E08BE892E016
:1016F000099580918B028E7F80938B02E0919002FE
:10170000F091910240E050E06AE070E08BE892E0F6
:101710000995009729F020918B02216020938B027C
:1017200008958AE499E19093F2028093F10208957A
:1017300080918B028E7F80938B0210929502109283
:10174000940281E090E09093AC028093AB021092FF
:10175000F0021092EF028093FE0210925103109259
:1017600052031092530389ED91E190939302809379
:1017700092028CED91E190939102809390021092ED
:101780009D0210929C020E94910B0E946A0B0E9483
:101790005B0B109259031092580310925B03109246
:1017A0005A0310925C03EDE1F3E08FEF819393E035
:1017B000EA32F907D9F70895BC0187E892E00C9462
:1017C0006018CF92DF92EF92FF920F931F93CF9307
:1017D000DF937C018B016A01E9011C161D0624F5CB
:1017E0008091B1028093A2028091B2028093A30201
:1017F0008091B3028093A402F0929F02E0929E0235
:101800001093A1020093A002D092A602C092A5025A
:101810001092A8021092A7028BE892E00E94E31DAA
:1018200021970F5F1F4FD9CFDF91CF911F910F915C
:10183000FF90EF90DF90CF900895E7E8F2E022A5C7
:10184000238F23A5248F24A5258F908F878B728FBC
:10185000618F0184F285E02D40E050E064E170E0AA
:101860008BE892E009942F923F924F925F926F9291
:101870007F928F929F92AF92BF92CF92DF92EF9220
:10188000FF920F931F93CF93DF93EC018B016A01BB
:1018900079014901861A970A3A01680E791EB40146
:1018A000C3010E941D0C5701AC1ABD0A28014C0C43
:1018B0005D1CB501C2010E941D0C16012C1A3D0AC7
:1018C000B401C1010E941D0CC01AD10AB501C601A4
:1018D0000E941D0C0E0D1F1DB801C3010E941D0C9E
:1018E000CE0DDF1DBE01C2010E941D0CB801C10159
:1018F0000E941D0CBE01C601DF91CF911F910F9177
:10190000FF90EF90DF90CF90BF90AF909F908F901F
:101910007F906F905F904F903F902F900C941D0C94
:101920002F923F924F925F926F927F928F929F92EF
:10193000AF92BF92CF92DF92EF92FF920F931F93DD
:10194000CF93DF93CDB7DEB728970FB6F894DEBFFD
:101950000FBECDBF07E812E09BE8F80192A795E41F
:1019600093A793E194A7282F30E038872F8339017C
:101970003AE0630E711C22E030E044E050E06DE29A
:1019800070E0C3010E94E10BCF80D88480E1C80ED3
:10199000D11C22E030E044E050E06DE270E0C6018E
:1019A0000E94E10BEF80F88496E0E90EF11C22E042
:1019B00030E044E050E06FE270E0C7010E94E10BCC
:1019C000EF81F8857496FA83E98322E030E044E001
:1019D00050E06FE270E0CF010E94E10BAF80B8846D
:1019E000F4E0AF0EB11C22E030E042E050E061E3F1
:1019F00070E0C5010E94E10B2F813885285E3F4FC2
:101A00003C832B8322E030E042E050E061E370E071
:101A10008B819C810E94E10B8F80988432E0830E41
:101A2000911C24E030E042E050E063E370E0C40148
:101A30000E94E10B8F8198854A969E838D8324E0D6
:101A400030E042E050E063E370E00E94E10B2EE002
:101A500030E042E050E067E370E08F8198850E94BB
:101A6000E10B2EE030E042E050E067E370E08F8170
:101A700098854C960E94E10B4F8058849CE0490E5B
:101A8000511C26E130E042E050E063E370E0C20127
:101A90000E94E10B2EE130E042E050E06FE270E0A6
:101AA0008F8198850E960E94E10B26E130E042E09E
:101AB00050E063E370E0C6010E94E10B24E030E0F7
:101AC00042E050E065E470E0C4010E94E10B24E0D4
:101AD00030E042E050E065E470E08D819E810E943C
:101AE000E10B22E030E042E050E069E470E0C50143
:101AF0000E94E10B22E030E042E050E069E470E057
:101B00008B819C810E94E10B22E030E044E050E0B8
:101B10006BE470E0C7010E94E10B22E030E044E09A
:101B200050E06BE470E089819A810E94E10B22E031
:101B300030E044E050E06DE470E0C3010E94E10B4E
:101B400022E030E044E050E06DE470E0C6010E9425
:101B5000E10B85EFF80182A78EED83A783EB84A7C5
:101B600024E030E042E050E063E370E0C7010E940F
:101B7000E10B2EE030E042E050E067E370E0C501A9
:101B80000E94E10B24E030E042E050E065E470E0C8
:101B9000C7010E94E10B2F803884F2E12F0E311C27
:101BA00024E130E042E050E065E370E0C1010E94D2
:101BB000E10B8DECF80182A785E883A78FE384A76A
:101BC0002EE030E042E050E067E370E0C4010E94A4
:101BD000E10B24E030E042E050E063E370E0C50157
:101BE0000E94E10B24E030E042E050E065E470E068
:101BF000C5010E94E10B22E030E042E050E061E3E9
:101C000070E0C7010E94E10B2EE030E042E050E0BE
:101C100067E370E0C7010E94E10B22E030E042E0A0
:101C200050E069E470E0C7010E94E10B2AE130E076
:101C300042E050E061E370E08F81988508960E9451
:101C4000E10B2EE130E042E050E06FE270E0C301D2
:101C50000E94E10B24E030E042E050E06FE270E0EF
:101C6000C2010E94E10B24E030E042E050E069E470
:101C700070E0C2010E94E10B24E030E042E050E05D
:101C80006FE270E0C6010E94E10B24E030E042E028
:101C900050E069E470E0C6010E94E10B26E030E00C
:101CA00042E050E06FE270E0C1010E94E10B24E0ED
:101CB00030E042E050E069E470E0C1010E94E10BD5
:101CC0002AE130E044E050E061E370E089819A81EC
:101CD0000E94E10B26E130E042E050E063E370E077
:101CE0008B819C810E94E10B2EE030E042E050E0CD
:101CF00067E370E08D819E8128960FB6F894DEBF71
:101D00000FBECDBFDF91CF911F910F91FF90EF904C
:101D1000DF90CF90BF90AF909F908F907F906F900B
:101D20005F904F903F902F900C94E10B5F926F92D9
:101D30007F928F929F92AF92BF92CF92DF92EF925B
:101D4000FF920F931F93CF93DF93EC015B016A0126
:101D50008091B1028093A2028091B2028093A3028B
:101D60008091B3028093A4024C175D0724F48E0186
:101D7000041B150B03C08A010C1B1D0B2A153B0508
:101D80008CF47501E21AF30A0E151F052CF59A2D35
:101D90008B2D5601C92ED82E9C2F8D2FE901292F6E
:101DA000382F11C07901EA18FB080E151F050CF039
:101DB00056C09C2D8D2D6901292F382F9C2F8D2FDA
:101DC000E501A92EB82E5524539447019594879484
:101DD000A216B306A4F055C0CC16DD060CF055C013
:101DE000480195948794902F812F8701E92EF82E32
:101DF0009C2D8D2D6E01C92FD82F5901512C662491
:101E00006394712C1127CC16DD060CF445C05110DB
:101E100009C0D0939F02C0939E02B092A102A092EB
:101E2000A00208C0B0929F02A0929E02D093A1028D
:101E3000C093A002E0919002F091910240E050E046
:101E400064E170E08BE892E00995801A910A97FEB0
:101E500004C0A60CB71C8E0C9F1C2196D4CFCC16A8
:101E6000DD069CF4480195948794902F812F87017B
:101E7000E92EF82E9C2D8D2D6E01C92FD82F5901DA
:101E8000512C66246A94762CBDCF9E2D8F2D78011F
:101E9000092F182F512C99CFDF91CF911F910F91BE
:101EA000FF90EF90DF90CF90BF90AF909F908F907A
:101EB0007F906F905F9008956F927F928F929F9224
:101EC000AF92BF92CF92DF92EF92FF920F931F9348
:101ED000CF93DF933C014B01EA0101E010E0041BCA
:101EE000150BEE24FF24E41AF50AEE0CFF1C9B01EF
:101EF000A301BE0180E090E00E94330CC12CD12CE4
:101F0000AA24A394B12CCC16DD06BCF417FD06C0A0
:101F1000219782E0E80EF11C0E0D1F1D8FEFC81AED
:101F2000D80A82E0A80EB11C0A0D1B1D9401A30162
:101F3000BE01C6010E94330CE6CFDF91CF911F9105
:101F40000F91FF90EF90DF90CF90BF90AF909F9058
:101F50008F907F906F9008958091EF029091F002A2
:101F60008451914009F4A1C0E4E1F1E0F093F00262
:101F7000E093EF02E491E0930003E5E1F1E0E49106
:101F8000E0930103E6E1F1E0E491E0930203E7E18D
:101F9000F1E0E491E0930303E8E1F1E0E491E09300
:101FA0000403E9E1F1E0E491E0930503EAE1F1E003
:101FB000E491E0930603EBE1F1E0E491E0930703A1
:101FC000ECE1F1E0E491E0930803EDE1F1E0E4916C
:101FD000E0930903EEE1F1E0E491E0930A03EFE11D
:101FE000F1E0E491E0930B03E0E2F1E0E491E093AF
:101FF0000C03E1E2F1E0E491E0930D03E2E2F1E0B1
:10200000E491E0930E03E3E2F1E0E491E0930F0347
:10201000E4E2F1E0E491E093100381E10E94250BFA
:10202000909312038093110383E10E94250B9093F8
:102030001403809313038091EF029091F002892B97
:10204000A1F180910D0380931B0340910E034093F7
:102050001C0390911A03992341F1913069F49091F6
:102060000F03891714F490931B03809110038417B6
:10207000E4F480931C03089530910A0320910C032B
:10208000082E000C990B622F022E000C770B630FA9
:10209000711D37FD7A95861797071CF4320F309320
:1020A0001B03241714F420931C030895CF93DF938C
:1020B000C7E8D2E01AA61BA61CA68BE892E00E94F5
:1020C000EE1D2F8138854D815E8160E070E080E0FB
:1020D00090E00E94E10B8FEF8AA78BA78CA7DF917E
:1020E000CF910895DC011A964C911A97ED91FC91CD
:1020F0001197249130E0042E02C0359527950A945B
:10210000E2F7842F860F883010F4E22F0DC031964D
:102110001196FC93EE93E49198E0941B01C0EE0FAE
:102120009A95EAF7E22B88501A968C9381E090E01A
:1021300001C0880F6A95EAF781508E2308955F9257
:102140006F927F928F929F92AF92BF92CF92DF92C7
:10215000EF92FF920F931F93CF93DF93EC01F62E34
:10216000642E8C0108591F4FF8017680C780F80152
:10217000D084D7185D2CFD1408F45F2CF8018480FE
:102180009580E4842E2D4C2D672D828193810E94B1
:10219000B11D5C012E2D4C2D672DC4010E94CA1D5E
:1021A000662031F02EA12F8B2FA1288F28A509C0E2
:1021B000F8012385211115C029A52F8B2AA5288F69
:1021C0002BA5298FBC8AAB8A9E8B8D8B852D90E0A9
:1021D0009B8F8A8F2E2D30E03D8F2C8FCE010E9459
:1021E000E31DFD1420F0FD18C394712CC0CFF70C33
:1021F000F801F682C782DF91CF911F910F91FF9076
:10220000EF90DF90CF90BF90AF909F908F907F9096
:102210006F905F900895CF93DF93282F30E0F901FE
:10222000E253FF4F8491F901EE51FF4FD491F90130
:10223000E050FF4FC491CC2391F081110E94320BEA
:10224000EC2FF0E0EE0FFF1FEC53FF4FA591B49180
:10225000EC91ED2381E090E021F480E002C080E089
:1022600090E0DF91CF9108951F93CF93DF93282FB4
:1022700030E0F901E253FF4F8491F901EE51FF4F35
:10228000D491F901E050FF4FC491CC23C1F0162F37
:1022900081110E94320BEC2FF0E0EE0FFF1FEA508D
:1022A000FF4FA591B4919FB7F894111104C08C9180
:1022B000D095D82302C0EC91DE2BDC939FBFDF9139
:1022C000CF911F910895CF93DF9390E0FC01EE51E1
:1022D000FF4F2491FC01E050FF4F8491882361F16E
:1022E00090E0880F991FFC01E654FF4FC591D491EF
:1022F000FC01EA50FF4FA591B491611109C09FB74D
:10230000F8948881209582238883EC912E230BC03A
:10231000623061F49FB7F8948881322F309583231F
:102320008883EC912E2B2C939FBF06C08FB7F89417
:10233000E8812E2B28838FBFDF91CF9108958F9254
:102340009F92AF92BF92CF92DF92EF92FF926B017A
:102350007C010E94E5174B015C01C114D104E1042A
:10236000F104F1F00E94E517DC01CB01881999090D
:10237000AA09BB09883E9340A105B10570F321E08D
:10238000C21AD108E108F10888EE880E83E0981E91
:10239000A11CB11CC114D104E104F10419F7DDCF73
:1023A000FF90EF90DF90CF90BF90AF909F908F9075
:1023B000089581E090E008956C30710559F067311F
:1023C000710589F4DC011796ED91FC91189767E18E
:1023D00070E00994DC01A45ABF4F88E0FA01019033
:1023E0000D928A95E1F781E090E008958EBD00009E
:1023F0000DB407FEFDCF8EB508952F923F924F92F8
:102400005F926F927F928F929F92AF92BF92CF9284
:10241000DF92EF92FF920F931F93CF93DF9300D041
:1024200000D0CDB7DEB79C838B83462E3C0125EDD3
:10243000620E711CF30150806C01F3EDCF0ED11CC4
:10244000F601008111814C01F1ED8F0E911CF40118
:10245000A080B1807C01F4E0EF0EF11C21E0521667
:1024600001F1521690F032E0531639F183E0581220
:102470002FC0EB81FC81E659FF4F0190F081E02DE8
:10248000C7010995A80EB91E23C0EB81FC81E6594E
:10249000FF4F0190F081E02DC7010995080F191F2A
:1024A00017C0EB81FC81E659FF4F0190F081E02DD0
:1024B000C7010995A81AB90A0BC0EB81FC81E6593E
:1024C000FF4F0190F081E02DC7010995081B190B02
:1024D000EB81FC81E259FF4FB182A082EB81FC814C
:1024E000E059FF4F11830083EB81FC81E858FF4FD7
:1024F0005082EB81FC81E859FF4F808191814596A4
:10250000E0E6E41528F4EB81FC81E457FF4F07C0B7
:10251000F0E4F41540F4EB81FC81E657FF4F208195
:102520003181820F931F9C012F5F3F4FF90144912E
:10253000442309F4B2C0FC014491441629F0F90186
:102540002491820F911DEFCF009709F4A6C00B8153
:102550001C8104591F4FF8011286029691838083D3
:10256000EB81FC81E358FF4F6081C8010E9472102B
:10257000F8018087EB81FC81E258FF4F6081C80140
:102580000E947210582EF8018187EB81FC81E1587E
:10259000FF4FB0806B2DC8010E9472109FEF9B0D02
:1025A000AA24A394B12C950101C0220F9A95EAF7B1
:1025B000382E321AEB81FC81E058FF4F4080642DA9
:1025C000C8010E9472104A94950102C0220F331F65
:1025D0004A94E2F73A832983282E250CEB81FC816B
:1025E000EF57FF4F4080642DC8010E9472104A943B
:1025F00001C0AA0C4A94EAF7482E4A18F8018085CF
:10260000181624F0042C000C550849C0F801B484B5
:10261000A980A2182B2D4A2D632D828193810E94BF
:10262000B11DF801938382832B2D4A2D632D848164
:1026300095810E94CA1DF8019583848316821782B2
:10264000AB80BC80FBE7AF0EB11C2B813C812458D2
:102650003F4F3A832983F5016081C8010E947210BF
:10266000282EE981FA816081C8010E947210382EFB
:1026700040E0622DC7010E949F1041E0632DC70119
:102680000E949F1061E0C8010E9472108111F0CF7A
:10269000F80187818515FCF2B5CF412C512CF3014F
:1026A0008081813039F020F0823061F4F4010BC078
:1026B000F40101C0F60180819181480E591E5182BA
:1026C000408207C0F6018081918184199509918328
:1026D000808381E090E00F900F900F900F90DF913A
:1026E000CF911F910F91FF90EF90DF90CF90BF900F
:1026F000AF909F908F907F906F905F904F903F90A2
:102700002F900895CF92DF92EF92FF920F931F9335
:10271000CF93DF938C01EA017901FB013A97EC300A
:10272000F10508F020C1E55CFF4F0C949E220D5688
:102730001F4F0CC1FC01EE56FF4F80818F3F19F0F7
:1027400061E00E946311F801ED56FF4F61E0808166
:102750000E946311F801EC56FF4F80818F3F19F002
:1027600061E00E946311CFB7F894809163038111F7
:1027700027C0EAE0F1E08491ECEEF0E09491E82FDC
:10278000F0E0EE0FFF1FE654FF4FA591B491EC91DE
:10279000E92321F461E08AE00E94341161E08AE0DB
:1027A0000E9463118CB580618CBD8CB580648CBD3A
:1027B00061E08DE00E94631161E08BE00E94631193
:1027C000809163038F5F80936303CFBFF701208104
:1027D000318140E050E060E07AEC8AE99BE30E94BE
:1027E0005422C12C72E1D72E7AE7E72EF12C90E02B
:1027F0002C153D054E055F0540F4F694E794D794FB
:10280000C7949F5F9630A1F797E081E08927982FC2
:10281000906A9695817020916203222379F02FB7F8
:10282000F89430916203313039F43DB33093610351
:102830003DB33DBB2FBF02C0209361039CBD8DBD46
:1028400092C080916203882361F09FB7F894209131
:10285000620380916103213019F48DBB9FBF01C0D9
:102860008FBF9FB7F89480916303882319F081503C
:102870008093630380916303811105C08CB58F7BC6
:102880008CBD109262039FBF6EC04230510508F4A8
:102890006AC0CC0FDD1FCC0FDD1F25972197F1F704
:1028A00062C0FC01EE56FF4F03C0FC01EC56FF4F27
:1028B00080818F3F09F457C06C2F05C0FC01ED5695
:1028C000FF4F642F80810E9434114DC0842F0E94DD
:1028D000F61149C0209709F446C0F70180810E9493
:1028E000F6112197F7CF2097F1F1F70180810E942F
:1028F000F611F70181810E94F6112197F4CF2097FC
:1029000091F1F70180810E94F611F70181810E9407
:10291000F611F70182810E94F6112197F0CFC20FC4
:10292000D31FCE15DF05F9F0F70181917F010E94D9
:10293000F611F7CFF701808181110BC0F70181817A
:102940000E94F611F2E0EF0EF11C2197209791F70B
:102950000AC0813011F460E001C061E0F8018081BB
:102960000E943411EBCF81E090E0DF91CF911F9175
:102970000F91FF90EF90DF90CF900895EF92FF922C
:102980000F931F93CF93DF9300D000D0CDB7DEB766
:102990006F30710509F454C08C016031710564F425
:1029A0006A30710591F06B30710509F0C9C06DEFA7
:1029B00074E00E94E619D2C06431710509F44DC07B
:1029C0006531710509F469C0BBC084E690E09A8363
:1029D000898382E490E09C838B83780187ECE80E06
:1029E000F11CD7018C9183FF0DC0D8015196ED9158
:1029F000FC91529720E030E040E050E06BE070E066
:102A0000C8010995F7018081877F8083F801EA5327
:102A1000FF4F1082D8015196ED91FC9152979E0183
:102A20002F5F3F4F40E050E06AE070E0C801099539
:102A3000009709F495C0F70120812860208390C099
:102A400080E890E0DA0111969C938E9380EA90E002
:102A500013969C938E93129781C00E94241B892BFE
:102A600009F47CC0C8010E940C1B892B09F476C0B4
:102A70006FED74E0C8010E94E619F8018789898327
:102A8000808D8A83818D8B830188F289E02D9E0160
:102A90002F5F3F4F41E050E057C00E943C1B892B05
:102AA00009F45CC0F801848D958D8130910541F069
:102AB0008230910559F0892BD1F46AE675E002C0A5
:102AC00069E475E0C8010E94E61921C0E388F48832
:102AD0008FE790E08E199F09948B838B68E275E0F5
:102AE000C8010E94E619F801F48AE38A10C0E5885B
:102AF000F6888FE990E08E199F09968B858B64E0AC
:102B000075E0C8010E94E619F801F68AE58AD80145
:102B100057968C915797898358968C9158978A83AA
:102B200059968C9159978B835A964D915C915B97EE
:102B30005196ED91FC9152979E012F5F3F4F04C03B
:102B4000C8010E94DC110CC063E170E0C801099566
:102B50002EE042E061E0C8010E94961981E090E019
:102B60000F900F900F900F90DF91CF911F910F91C9
:102B7000FF90EF900895FC0120818681280F20832B
:102B80004485558582859385840F951F9587848715
:102B900040855185841795073CF03281230F2083AF
:102BA000841B950B958784870895AF92BF92DF921F
:102BB000EF92FF920F931F93CF93DF93EC017B0172
:102BC0008B015C0182E0A80EB11CF801D1908F014D
:102BD000CE010E941F22D81621F06D2DCE010E9439
:102BE00027222196CA15DB0581F7C701DF91CF9116
:102BF0001F910F91FF90EF90DF90BF90AF900895DD
:102C00000F931F93CF93DF938C01EB010E941F2240
:102C10008883C80101960E941F228983CE01DF911B
:102C2000CF911F910F9108951092B1021092B202AC
:102C30001092B30228E230E040E850E068E770E02C
:102C400080E090E00E94E10B80916B038823B1F05B
:102C50008FEF8093B1021092B2021092B30289E218
:102C600090E0909359038093580382E890E090930A
:102C70005B0380935A038DEC91E028C086E4809337
:102C8000B1028093B2028093B302809167038130D6
:102C900079F48BE190E0909359038093580386E98F
:102CA00090E090935B0380935A038BE491E00EC015
:102CB00089E190E0909359038093580386E990E06E
:102CC00090935B0380935A0389E691E00C94DC0BAC
:102CD00061E082E00C943411CF92DF92EF92FF9288
:102CE000CF93DF93EC0180916B0381111FC00E9491
:102CF0000A18DC01CB018C0F9D1FA11DB11D809313
:102D00005D0390935E03A0935F03B093600381E043
:102D100080936B030E94141660E082E0DF91CF91F4
:102D2000FF90EF90DF90CF900C9434110E940A181E
:102D3000C0905D03D0905E03E0905F03F09060036D
:102D40006C157D058E059F05B0F580916803853073
:102D500051F410925D0310925E0310925F03109283
:102D600060030E9468160E940A1820915D0330914A
:102D70005E03AE01421B530B640F751F8FEF8093F0
:102D8000B1028093B2028093B302CB01A0E0B0E025
:102D9000BC01CD0127E0660F771F881F991F2A9578
:102DA000D1F79E0140E050E00E943522422F50E0D2
:102DB00022E030E021C00E940A18C616D706E806B5
:102DC000F90630F50E94681610925D0310925E03BA
:102DD00010925F031092600310926B0310926603CF
:102DE0000E9414161092B1021092B2021092B30215
:102DF0002AE030E044E850E060E070E080E090E0FD
:102E0000DF91CF91FF90EF90DF90CF900C94E10B8A
:102E1000DF91CF91FF90EF90DF90CF900895CF9208
:102E2000DF92EF92FF920F931F93CF93DF936C018A
:102E30007A018B01C0E0D0E0CE15DF0581F0D8012A
:102E40006D918D01D601ED91FC910190F081E02D05
:102E5000C6010995892B11F02196EECF7E01C7019D
:102E6000DF91CF911F910F91FF90EF90DF90CF9066
:102E70000895FC01538D448D252F30E0842F90E080
:102E8000821B930B541710F0CF9608950197089565
:102E9000FC01918D828D981761F0828DDF01A80F62
:102EA000B11D5D968C91928D9F5F9F73928F90E084
:102EB00008958FEF9FEF0895FC01918D828D9817F3
:102EC00031F0828DE80FF11D858D90E008958FEF30
:102ED0009FEF08950E9401268AEE91E00E94CD188E
:102EE00021E0892B09F420E0822F0895EF92FF92D0
:102EF0000F931F93CF93DF93EC0181E0888F9B8D1D
:102F00008C8D981305C0E889F989808185FD26C0DC
:102F1000F62E0B8D10E00F5F1F4F0F731127E02E61
:102F20008C8DE8120CC00FB607FCFACFE889F9893E
:102F3000808185FFF5CFCE010E944D19F1CF8B8D99
:102F4000FE01E80FF11DE35AFF4FF0829FB7F8949E
:102F50000B8FEA89FB89808180620AC09FB7F89451
:102F6000EE89FF896083E889F989808183708064B4
:102F700080839FBF81E090E0DF91CF911F910F91FF
:102F8000FF90EF900895CF93DF93EC01888D882315
:102F9000C9F0EA89FB89808185FD05C0A889B989C6
:102FA0008C9186FD0FC00FB607FCF5CF808185FFA1
:102FB000F2CFA889B9898C9185FFEDCFCE010E940F
:102FC0004D19E7CFDF91CF9108953FB7F8948091E5
:102FD000790390917A03A0917B03B0917C0326B58D
:102FE000A89B05C02F3F19F00196A11DB11D3FBF41
:102FF000BA2FA92F982F8827820F911DA11DB11DCF
:10300000BC01CD0142E0660F771F881F991F4A95CA
:10301000D1F708952FB7F8946091750370917603F6
:1030200080917703909178032FBF08951F920F929C
:103030000FB60F9211242F933F938F939F93AF93CB
:10304000BF938091750390917603A0917703B0911F
:1030500078033091740323E0230F2D3720F4019679
:10306000A11DB11D05C026E8230F0296A11DB11DAB
:10307000209374038093750390937603A093770352
:10308000B09378038091790390917A03A0917B03A8
:10309000B0917C030196A11DB11D8093790390939B
:1030A0007A03A0937B03B0937C03BF91AF919F9170
:1030B0008F913F912F910F900FBE0F901F901895F9
:1030C0006115710579F0FB0101900020E9F7319756
:1030D000AF01461B570BDC01ED91FC910280F3819F
:1030E000E02D099480E090E008951F920F920FB6B2
:1030F0000F9211242F933F934F935F936F937F937E
:103100008F939F93AF93BF93EF93FF938AEE91E0DA
:103110000E944D19FF91EF91BF91AF919F918F91B7
:103120007F916F915F914F913F912F910F900FBEC3
:103130000F901F9018951F920F920FB60F921124A7
:103140002F938F939F93EF93FF93E091FA01F09168
:10315000FB018081E0910002F091010282FD12C02A
:103160009081809103028F5F8F73209104028217F8
:1031700051F0E0910302F0E0E651FE4F958F80930D
:10318000030201C08081FF91EF919F918F912F9158
:103190000F900FBE0F901F901895FC01918D228DFE
:1031A000892F90E0805C9F4F821B91098F73992734
:1031B000089580E090E0892B29F00E946C1781111E
:1031C0000C9400000895EF92FF920F931F93CF93FA
:1031D000DF937C01EA018A01060F171FC017D10790
:1031E00081F0FE01449150E0D7015196ED91FC91A0
:1031F000529720E030E060E170E0C7010995219628
:10320000EDCFDF91CF911F910F91FF90EF90089537
:10321000AB01DC015196ED91FC91529720E030E03A
:103220006CE070E009940F931F93CF93DF938C01B0
:10323000EB01209739F068EE73E0C8010E9408198D
:103240002197F7CFDF91CF911F910F910895CF93E1
:10325000DF93EC01A881B981A217B3079CF4EB01BD
:10326000E881F9814E175F076CF4A417B5071CF4C9
:10327000DC014D935C932E173F073CF4EB0139833F
:10328000288303C080E090E002C081E090E0DF91FD
:10329000CF91089580E090E00895FC01848DDF01D6
:1032A000A80FB11DA35ABF4F2C91848D90E00196B9
:1032B0008F739927848FA689B7892C93A089B189A8
:1032C0008C91837080648C93938D848D981306C049
:1032D0000288F389E02D80818F7D808308951F927D
:1032E0000F920FB60F9211242F933F934F935F933A
:1032F0006F937F938F939F93AF93BF93EF93FF93BE
:10330000E0916403F09165030995FF91EF91BF91FE
:10331000AF919F918F917F916F915F914F913F916D
:103320002F910F900FBE0F901F901895EF92FF9264
:103330000F931F93CF93C42F8C010A531F4FAC01DF
:1033400049535F4F7A0161111BC0D8013C913C2366
:1033500029F0FA0130813C23C3132EC0622F70E0A4
:10336000DC015196ED91FC91529720E030E040E075
:1033700050E009958C2F8095F7019081892317C023
:10338000F80130813C2321F0DA013C913C23A1F487
:10339000462F50E0622F70E0DC015196ED91FC91D8
:1033A000529720E030E00995F70180818C2B8083D3
:1033B000D8018C91C82BCC93CF911F910F91FF9086
:1033C000EF9008952FE041E00C9496196F927F9250
:1033D0008F929F92AF92BF92CF92DF92EF92FF9225
:1033E0000F931F93CF93DF938C01EB014C0188EC7B
:1033F000880E911C66246394FE016491E62EE2948B
:103400002FE0E222F62FFF707F2E8E2D90E0FC0140
:103410003197EF30F10508F0C2C0E25BFF4F0C942A
:103420009E225E018FEFA81AB80AD4016C916695AE
:103430006170C8010E94E219F12CA501B701C80111
:103440000E94E318C72CD12C772069F0AE0CBF1C6A
:10345000F40160816170C8010E94E219A501B60102
:10346000C8010E94E318FFEFEF1AFF0AEC0CFD1CE5
:1034700012C0D4016C916170C8010E94E219AE01C2
:103480004F5F5F4FE72CF12CB701C8010E94E31892
:10349000BFEFEB1AFB0ACE0DDF1DAECFF40160814A
:1034A000669561706625C8010E94E219E72CF12C2F
:1034B000772039F0AE014F5F5F4FB701C8010E941E
:1034C000E318FFEFEF1AFF0AE6CFFE013196E49111
:1034D000672D70E0762F66276E0F711DC8010E9460
:1034E00013190CC0FE013196E491672D70E0762F20
:1034F00066276E0F711DC8010E94081922967CCFA5
:10350000FE013196E4903196F4902396D4016C91AB
:103510006170C8010E94E219D8015396ED91FC91A7
:10352000549711C0FE013196E4903196F4902396A1
:10353000F40160816170C8010E94E219D8015596BA
:10354000ED91FC91569702C0F595E7957A94E2F7D4
:10355000EE21EF294E2F50E05196ED91FC915297BC
:1035600020E030E060E170E0C801099545CF872D8B
:1035700086958695813059F030F0833071F4637010
:10358000F40160830AC061702DE044E003C0617003
:103590002EE042E0C8010E94961921962DCFDF91BE
:1035A000CF911F910F91FF90EF90DF90CF90BF9040
:1035B000AF909F908F907F906F900895CF93DF93FF
:1035C0006B30710599F06F30710599F06A307105B3
:1035D000E1F4EC016AE070E00E94BE140097C9F0CB
:1035E00068E875E0CE010E94E6190CC06BE070E05F
:1035F0000CC080E890E0FA019183808380EA90E03B
:103600009383828381E090E004C0DF91CF910C949A
:10361000BE14DF91CF910895FC0125893689E25AC5
:10362000FF4F40815181241B350B37FD0AC0349672
:1036300081E090E0408151812417350724F080E03B
:10364000089580E090E00895FC0123893489E45ACC
:10365000FF4F40815181241B350B37FD0AC0349642
:1036600081E090E0408151812417350724F080E00B
:10367000089580E090E00895EF92FF920F931F93DA
:10368000CF93DF9300D000D0CDB7DEB78C01FC0123
:10369000178E168EE48CF58CF1E0EF16F10409F428
:1036A00046C01CF4EF2861F0E7C052E0E516F104D3
:1036B00009F472C083E0E816F10409F4A5C0DCC087
:1036C0000E940C1B892B19F4E12CF12CD8C0F801B5
:1036D000838994899A838983228D338D820F931FE6
:1036E0009C838B83E45AFF4F408151813496208123
:1036F0003181240F351FBE016D5F7F4FCE010196D2
:103700000E942719892B01F329813A81F8018389C5
:103710009489A901481B590B578F468F348B238BF3
:103720008B819C81821B930B938F828FA5C00E94FB
:10373000241B892B49F2F801858996899A8389830C
:10374000228D338D820F931F9C838B83E25AFF4F10
:1037500040815181349620813181240F351FBE0173
:103760006D5F7F4FCE0101960E942719892B09F4C6
:10377000ABCF29813A81F80185899689A901481B37
:10378000590B578F468F368B258B8B819C81821BE3
:10379000930B938F828F73C00E940C1B892B09F4AB
:1037A00093CFF8018389948901969C838B83228D22
:1037B000338D821B930B9A838983E45AFF4F408198
:1037C0005181349620813181240F351FBE016D5FF8
:1037D0007F4FCE0101960E942719892B09F474CFDF
:1037E0008B819C8129813A81AC01421B530BF801EA
:1037F000538F428F019723893489281B390B378FC8
:10380000268F948B838B38C0C8010E94241B892B80
:1038100009F45ACFF8018589968901969C838B8398
:10382000228D338D821B930B9A838983E25AFF4F3B
:1038300040815181349620813181240F351FBE0192
:103840006D5F7F4FCE0101960E942719892B09F4E5
:103850003BCF8B819C8129813A81AC01421B530B68
:10386000F801538F428F019725893689281B390B20
:10387000378F268F968B858BEE24E394F12CC7012E
:103880000F900F900F900F90DF91CF911F910F919C
:10389000FF90EF9008954F925F926F927F928F9278
:1038A0009F92AF92BF92CF92DF92EF92FF920F93CF
:1038B0001F93CF93DF9300D01F92CDB7DEB7FC01EB
:1038C0006731710509F037C14C0186E2880E911C01
:1038D0008F016F01AAE2CA0ED11C9F0144244394B8
:1038E000512C66246A94762CE28CF38CD4011396C6
:1038F000AC9013974D914D01D901D3964C93D3972A
:10390000B12CA41AB108D796BC92AE92D697B1E06A
:10391000EB1AF108D901DB96FC92EE92DA97D59674
:103920005C924E92D497C501B7010E948A22D901B8
:10393000D9967C936E93D897B7FE0BC0B194A1949F
:10394000B108D796BC92AE92D697D5967C926E92DD
:10395000D497D901D6968D919C91D797B7010E94A3
:103960008A22D901DD969C938E93DC97F7FE03C0E3
:10397000BFEFEB1AFB0AF594E794D901DF96FC92AE
:10398000EE92DE97D2964C93225F3F4FC216D3063B
:1039900009F0AACF7F015F01B2E3AB0EB11CCF01EA
:1039A0000E943C1B892B09F4C6C0F701868D978DB8
:1039B000D801D8964C91D897489F402D1124D29683
:1039C0004C93D297DA96ED91FC91DB97DC966D9152
:1039D0007C91DD97869F9001879F300D969F300DDB
:1039E0001124CF01F7FD019695958795280F391F72
:1039F000D801D4968D919C91D59797FD06C0C901A9
:103A0000BF010E948A22460F05C0C901BF010E9462
:103A10008A22461BD801D2964C93C901BF010E944D
:103A20008A22F80197AF86AF92A983A9890F82AB4A
:103A3000025F1F4FC016D10609F0B7CFD7015C96C1
:103A40008D919C915D978130910531F469E475E029
:103A5000C7010E94E61919C08230910509F050C0D3
:103A6000D70153960D911C9154978FE790E0801BDE
:103A7000910B54969C938E93539768E275E0C7011F
:103A80000E94E619F701148B038B00E010E0670138
:103A9000F0E4CF0ED11C47018EE4880E911CF70193
:103AA000828D938D0817190724F5D701D2968C9132
:103AB0008983F60180818A83D4018C918B83D7011D
:103AC0005196ED91FC9152979E012F5F3F4F41E03F
:103AD00050E063E170E0C7010995C5010E94BB1584
:103AE000C6010E94BB15C4010E94BB150F5F1F4F8A
:103AF000D6CF2EE042E061E0C7010E9496191BC0BC
:103B0000892B19F46AE675E0A3CFD70155960D917C
:103B10001C9156978FE990E0801B910B56969C93D1
:103B20008E93559764E075E0C7010E94E619F7018E
:103B3000168B058BAACF81E090E00F900F900F902D
:103B4000DF91CF911F910F91FF90EF90DF90CF9079
:103B5000BF90AF909F908F907F906F905F904F90AD
:103B60000895213069F038F0223079F4861B9109EC
:103B700067FD93950895860F911D67FD9A950895A9
:103B8000841B910947FD93950895840F911D47FD6E
:103B90009A950895213069F038F0223079F4841B29
:103BA000910947FD93950895840F911D47FD9A95BE
:103BB0000895860F911D67FD9A950895861B9109BA
:103BC00067FD93950895AC014D5E5F4FDC0115963E
:103BD000ED91FC91169765E170E00994CF93DF9326
:103BE000CDB7DEB728970FB6F894DEBF0FBECDBFB6
:103BF000DC0111964D915D916D917C9114974D83EF
:103C00005E836F8378871A8219821C821B821596C5
:103C1000ED91FC911697AE014F5F5F4F6CE070E045
:103C2000099528960FB6F894DEBF0FBECDBFDF9181
:103C3000CF910895CF93DF93EAEEF1E013821282E1
:103C400088EE93E0A0E0B0E084839583A683B783F9
:103C50008FE091E09183808385EC90E09587848765
:103C600084EC90E09787868780EC90E0918B808B46
:103C700081EC90E0938B828B82EC90E0958B848B2F
:103C800086EC90E0978B868B118E128E138E148E9D
:103C9000C7E8D2E01B821A8281E291E0998388838F
:103CA0000E94980B81E291E0998388830E94980B8F
:103CB0008EED9AE190935503809354038BE49CE13D
:103CC000909357038093560388E080931D0389E007
:103CD00080931E038AE080931F03E8E0F1E0E49103
:103CE000F0E0EE0FFF1FEA50FF4F85919491909303
:103CF0002B0380932A03EAEEF0E0E491E09344037F
:103D0000E9E0F1E0E491F0E0EE0FFF1FEA50FF4F31
:103D10008591949190932D0380932C03EBEEF0E02A
:103D2000E491E0934503EAE0F1E0E491F0E0EE0F86
:103D3000FF1FEA50FF4F8591949190932F0380933A
:103D40002E03ECEEF0E0E491E093460381E291E093
:103D500099838883DF91CF910895CF93DF9300D02B
:103D6000CDB7DEB7789484B5826084BD84B58160B8
:103D700084BD85B5826085BD85B5816085BD809136
:103D80006E00816080936E001092810080918100AE
:103D900082608093810080918100816080938100A6
:103DA000809180008160809380008091B100846068
:103DB0008093B1008091B00081608093B0008091C9
:103DC0007A00846080937A0080917A008260809388
:103DD0007A0080917A00816080937A0080917A00E5
:103DE000806880937A001092C100E091FA01F0910E
:103DF000FB0182E08083E091F601F091F7011082EF
:103E0000E091F801F091F90180E1808310920202C3
:103E1000E091FE01F091FF0186E08083E091FC01DA
:103E2000F091FD01808180618083E091FC01F0913F
:103E3000FD01808188608083E091FC01F091FD01AB
:103E4000808180688083E091FC01F091FD01808198
:103E50008F7D808366ED71E08AEE91E00E946018AC
:103E600066EE71E08AEE91E00E94601868EE73E001
:103E700080E090E00E949F1180915603909157033B
:103E8000409154035091550320918B022E7F209333
:103E90008B02109295021092940221E030E0309350
:103EA000AC022093AB021092F0021092EF0220932A
:103EB000FE02109251031092520310925303009786
:103EC00011F489ED91E190939302809392025093C3
:103ED00091024093900282E893E190939D02809337
:103EE0009C020E94910B0E946A0B0E945B0B109235
:103EF000FE020E94561082E290E00E94E0248C01B3
:103F00008FE0F80180838EE0818380E182831382D9
:103F1000158214821782168284E0808712861186A9
:103F200081E083871586148686878787108A118AA1
:103F3000138A128A158A148A88EE93E0978B868BEF
:103F400080E991E0918F808F128E138E148E158EE2
:103F5000178E168E11A210A262E08FE00E946311EC
:103F6000F801818187FD03C062E00E946311F801BE
:103F7000828187FD03C062E00E946311F8018081A5
:103F80000E940B11F801238130E08217930721F47E
:103F900083E090E097838683F80181810E940B1172
:103FA000F801238130E08217930739F486819781E5
:103FB000F1E08F27F8019783868310936A030093BB
:103FC000690361E082E00E9463110E94681663E069
:103FD00071E084E190E00E94001661E071E088E207
:103FE00090E00E940016809103019091040190934B
:103FF0006F0380936E038091010190910201909371
:104000006D0380936C0380E18093810010928000A7
:1040100080E49FE1909387008093860081E1809304
:10402000810089E093E0909365038093640381E0CD
:1040300080936F0076E0C72EE5E0BE2EFCEDEF2EFC
:10404000FF24FA9411E003E0A2E0DA2EB4E0AB2EF4
:1040500080916B0381113DC0E0916903F0916A0387
:10406000F894248135818085823021F4C9018170E2
:10407000992706C08085843031F4C901837099275F
:104080009583848302C0158214828085843021F454
:1040900035952795359527958085823011F435958E
:1040A00027958385882329F081859285892F9927F3
:1040B00002C080E090E037FF03C08095909506C075
:1040C000232B11F0019602C080E090E07894809359
:1040D0007303E0916903F0916A03F89484859585F0
:1040E000248535852330310519F0009709F0A4C1E6
:1040F0007894282F80936803E09167038E2F90E0D7
:104100008730910508F095C1FC01E95BFF4F0C94E5
:104110009E228091720381110AC080917303181648
:104120001CF41093670303C08111009367030E947E
:104130005F087FC1809172038111F9CF233039F478
:1041400060E082E00E94341110936B0306C02430BB
:1041500031F40E94681610926B030E94141680912D
:10416000730318161CF4D0926703E1CF8823F9F289
:1041700010926703DCCFD09271038091720381119A
:10418000D6CF8091730318161CF40093670303C005
:10419000811110936703253011F410936603809109
:1041A0006603813031F480910301909104010E94F3
:1041B0006C1680916803843009F0B9CF10937203B4
:1041C000A0926703B4CF00937103809172038111B1
:1041D000AECF8091730318161CF41092670303C0CE
:1041E0008111D0926703253011F4109366038091FA
:1041F00066038130F1F68091010190910201D7CFE1
:1042000080917103823009F07CC08091700381112C
:104210000DC080916E0390916F030E94DC09E091C4
:104220006903F0916A03138710937003209173035D
:1042300012169CF480916E0390916F038C3DFFEFFA
:104240009F0730F434E62302800D911D112412C023
:10425000F0926F03E0926E0311C02223A9F08091C7
:104260006E0390916F03009749F0E4E62E02800DF3
:10427000911D112490936F0380936E0380916E03C0
:1042800090916F030E94DC0980916803853059F595
:1042900080916E0390916F039093040180930301CA
:1042A000BE016F5F7F4F84E190E00E94001629817C
:1042B0003A8180910301909104012817390731F068
:1042C00063E071E084E190E00E94D51510927203E2
:1042D000B092670310927003E0916903F0916A0352
:1042E00013861286118680916803843009F01FCFEF
:1042F000809103019091040190936F0380936E036A
:104300007EC0833009F013CF8091700381110DC0FE
:1043100080916C0390916D030E94DC09E091690328
:10432000F0916A03138710937003209173031216A0
:104330009CF480916C0390916D038C3DFFEF9F077F
:1043400030F434E62302800D911D112412C0F09246
:104350006D03E0926C0311C02223A9F080916C03DD
:1043600090916D03009749F0E4E62E02800D911DB7
:10437000112490936D0380936C0380916C03909152
:104380006D030E94DC0980916803853059F58091A6
:104390006C0390916D039093020180930101BE0123
:1043A0006F5F7F4F88E290E00E94001629813A817A
:1043B00080910101909102012817390731F061E0E5
:1043C00071E088E290E00E94D51510927203B092DD
:1043D000670310927003E0916903F0916A031386FA
:1043E0001286118680916803843009F0A0CE8091F6
:1043F00001019091020190936D0380936C031092E0
:104400007203C092670310927003E0916903F09108
:104410006A031386128611868ACE0E945F086CEDAD
:1044200075E080E090E00E949F118091710380937D
:1044300067030E94D9180CCE1586148659CEF999B7
:10444000FECF92BD81BDF89A992780B50895262F99
:10445000F999FECF1FBA92BD81BD20BD0FB6F89469
:10446000FA9AF99A0FBE01960895052E97FB1EF44D
:1044700000940E944C2257FD07D00E94542207FC52
:1044800003D04EF40C944C225095409530952195D4
:104490003F4F4F4F5F4F0895909580957095619570
:1044A0007F4F8F4F9F4F0895A1E21A2EAA1BBB1B6F
:1044B000FD010DC0AA1FBB1FEE1FFF1FA217B307F0
:1044C000E407F50720F0A21BB30BE40BF50B661F06
:1044D000771F881F991F1A9469F7609570958095CA
:1044E00090959B01AC01BD01CF010895AA1BBB1B98
:1044F00051E107C0AA1FBB1FA617B70710F0A61BE4
:10450000B70B881F991F5A95A9F780959095BC0104
:10451000CD01089597FB072E16F4009407D077FD80
:1045200009D00E94762207FC05D03EF49095819533
:104530009F4F0895709561957F4F0895EE0FFF1F6F
:104540000590F491E02D09945058BB27AA270E94AA
:10455000BC220C942F240E94212438F00E9428248D
:1045600020F039F49F3F19F426F40C941E240EF425
:10457000E095E7FB0C941824E92F0E94402458F39F
:10458000BA17620773078407950720F079F4A6F538
:104590000C9462240EF4E0950B2EBA2FA02D0B0183
:1045A000B90190010C01CA01A0011124FF27591B78
:1045B00099F0593F50F4503E68F11A16F040A22F7E
:1045C000232F342F4427585FF3CF469537952795EF
:1045D000A795F0405395C9F77EF41F16BA0B620BEE
:1045E000730B840BBAF09150A1F0FF0FBB1F661F35
:1045F000771F881FC2F70EC0BA0F621F731F841F78
:1046000048F4879577956795B795F7959E3F08F09D
:10461000B0CF9395880F08F09927EE0F979587955F
:1046200008950E94F42308F481E008950E942A234B
:104630000C942F240E94282458F00E94212440F03A
:1046400029F45F3F29F00C94182451110C94632431
:104650000C941E240E94402468F39923B1F355233F
:1046600091F3951B550BBB27AA2762177307840785
:1046700038F09F5F5F4F220F331F441FAA1FA9F31B
:1046800035D00E2E3AF0E0E832D091505040E69509
:10469000001CCAF72BD0FE2F29D0660F771F881F6A
:1046A000BB1F261737074807AB07B0E809F0BB0B5D
:1046B000802DBF01FF2793585F4F3AF09E3F510571
:1046C00078F00C9418240C9463245F3FE4F3983E34
:1046D000D4F3869577956795B795F7959F5FC9F75A
:1046E000880F911D9695879597F90895E1E0660FDB
:1046F000771F881FBB1F621773078407BA0720F054
:10470000621B730B840BBA0BEE1F88F7E0950895BC
:104710000E94482488F09F5798F0B92F9927B751E5
:10472000B0F0E1F0660F771F881F991F1AF0BA9555
:10473000C9F714C0B13091F00E946224B1E008952D
:104740000C946224672F782F8827B85F39F0B93F1F
:10475000CCF3869577956795B395D9F73EF4909508
:104760008095709561957F4F8F4F9F4F0895E89486
:1047700009C097FB3EF490958095709561957F4FA9
:104780008F4F9F4F9923A9F0F92F96E9BB27939557
:10479000F695879577956795B795F111F8CFFAF467
:1047A000BB0F11F460FF1BC06F5F7F4F8F4F9F4F98
:1047B00016C0882311F096E911C0772321F09EE8F6
:1047C000872F762F05C0662371F096E8862F70E05C
:1047D00060E02AF09A95660F771F881FDAF7880F36
:1047E0009695879597F90895990F0008550FAA0B8C
:1047F000E0E8FEEF16161706E807F907C0F01216F4
:104800001306E407F50798F0621B730B840B950BF6
:1048100039F40A2661F0232B242B252B21F408954B
:104820000A2609F4A140A6958FEF811D811D0895E8
:1048300097F99F6780E870E060E008959FEF80EC53
:10484000089500240A9416161706180609060895F6
:1048500000240A9412161306140605060895092E5C
:104860000394000C11F4882352F0BB0F40F4BF2BCB
:1048700011F460FF04C06F5F7F4F8F4F9F4F08950B
:1048800057FD9058440F551F59F05F3F71F0479501
:10489000880F97FB991F61F09F3F79F087950895E6
:1048A000121613061406551FF2CF4695F1DF08C005
:1048B000161617061806991FF1CF86957105610522
:1048C00008940895E894BB2766277727CB0197F9CA
:1048D00008950E94F42308F48FEF08950E94812424
:1048E0000C942F240E94212438F00E94282420F0C8
:1048F000952311F00C9418240C941E2411240C946C
:1049000063240E94402470F3959FC1F3950F50E0FB
:10491000551F629FF001729FBB27F00DB11D639F71
:10492000AA27F00DB11DAA1F649F6627B00DA11D17
:10493000661F829F2227B00DA11D621F739FB00DBD
:10494000A11D621F839FA00D611D221F749F33272D
:10495000A00D611D231F849F600D211D822F762FC6
:104960006A2F11249F5750409AF0F1F088234AF0A3
:10497000EE0FFF1FBB1F661F771F881F915050400F
:10498000A9F79E3F510580F00C9418240C946324E1
:104990005F3FE4F3983ED4F3869577956795B79596
:1049A000F795E7959F5FC1F7FE2B880F911D9695B0
:1049B000879597F908950E94F423880B990B089521
:1049C0000F931F93CF93DF938230910510F482E011
:1049D00090E0E0917F03F091800320E030E0A0E0E0
:1049E000B0E0309719F1408151810281138148175D
:1049F0005907C8F08417950769F4109731F012969B
:104A00000C93129713961C9327C000937F03109367
:104A1000800322C02115310519F04217530718F4FD
:104A20009A01BD01EF01DF01F801DBCF211531054E
:104A3000F9F0281B390B2430310580F48A819B81E1
:104A40006115710521F0FB019383828304C090936B
:104A5000800380937F03FE01329644C0FE01E20F83
:104A6000F31F8193919322503109398328833AC0EF
:104A700020917D0330917E03232B41F42091070187
:104A80003091080130937E0320937D03209105012E
:104A9000309106012115310541F42DB73EB7409103
:104AA000090150910A01241B350BE0917D03F0911F
:104AB0007E03E217F307A0F42E1B3F0B28173907DC
:104AC00078F0AC014E5F5F4F2417350748F04E0F6A
:104AD0005F1F50937E0340937D038193919302C0A7
:104AE000E0E0F0E0CF01DF91CF911F910F910895A9
:104AF000CF93DF93009709F481C0FC0132971382B2
:104B00001282A0917F03B0918003109781F42081DD
:104B10003181820F931F20917D0330917E032817EE
:104B2000390751F5F0937E03E0937D0367C0ED01F3
:104B300020E030E0CE17DF0740F44A815B819E0120
:104B400041155105F1F0EA01F5CFD383C2834081CD
:104B50005181840F951FC817D90759F4888199810D
:104B6000840F951F0296918380838A819B81938312
:104B700082832115310529F4F0938003E0937F03AC
:104B80003DC0E901FB83EA8349915991C40FD51FC8
:104B9000EC17FD0761F480819181840F951F0296C7
:104BA000E90199838883828193819B838A83E0E0F2
:104BB000F0E012968D919C911397009719F0FD01EA
:104BC000DC01F7CF8D919C9111979D012E5F3F4F96
:104BD000820F931F20917D0330917E0328173907A0
:104BE00069F4309729F41092800310927F0302C079
:104BF00013821282B0937E03A0937D03DF91CF9145
:104C0000089581E090E0F8940C940626F894FFCF84
:104C1000FF983A401F00008103200000000000764A
:104C2000170F173917C317CD1848175C1700000066
:104C300000FD110F1706030503434F464645452067
:104C40004752494E444552007620312E31004D41A5
:104C50004E55414C204752494E4400486F6C6420E9
:104C6000746F206772696E64007820310053494E7A
:104C7000474C452053484F5400507265737320745D
:104C80006F2073746172740078203200444F554273
:104C90004C452053484F54005345542054494D45EA
:104CA0000053455454494E47532053415645440000
:104CB00053455454494E47532043414E43454C4C71
:104CC0004544006E616E00696E66006F7666005046
:104CD0007265737320746F20736176650047524963
:104CE0004E44494E470053797374656D3A205275AE
:0A4CF0006E6E696E67000D0A000089
:00000001FF
